:10000000B0020020190100001501000015010000D8
:1000100000000000000000000000000000000000E0
:1000200000000000000000000000000015010000BA
:100030000000000000000000150100001501000094
:100040001501000015010000150100001501000058
:100050001501000015010000150100001501000048
:100060001501000015010000150100001501000038
:100070001501000015010000150100001501000028
:100080001501000015010000150100001501000018
:100090001501000000000000000000001501000034
:1000A00015010000150100001501000015010000F8
:1000B0000000000010B5064C2378002B07D1054B3B
:1000C000002B02D0044800E000BF0123237010BDC4
:1000D0000000002000000000740A0000084B10B56A
:1000E000002B03D00749084800E000BF0748036819
:1000F000002B00D110BD064B002BFBD09847F9E731
:100100000000000004000020740A0000740A0000CF
:1001100000000000FEE70000F8B5234A234B9A4296
:1001200009D0224B204A03E01168196004330432DD
:100130001F498B42F8D31F4B02E000221A600433A0
:100140001D4A9342F9D31D4AFF211D4B8B439360F7
:10015000FD3990235B001B4AD1501B4AD3780325FD
:10016000AB4302242343D370D3780C27BB43082628
:100170003343D370154B987B302290432022104399
:100180009873997BB943314399739A7BAA4322436D
:100190009A730F4A516880230B4353600D4B984765
:1001A0000D4B9847FEE7C046740A0000000000208F
:1001B00000000020000000202C00002000ED00E0E6
:1001C0000000000000700041005000410048004164
:1001D00000400041B50900005903000010B5C36993
:1001E0009B07FCD4046802239C430460C369DB07BB
:1001F000FCD40468012323430360C369DB07FCD4F8
:10020000C369DB07FCD4C3699B07F9D4084B1A43C5
:100210000260C3695B07FCD4C0239B0243608181F9
:10022000C3699B07FCD4026802231343036010BD1B
:100230008400004010B586B01A4AA8231A49D1504C
:100240001A48D050D1501A49D1501A486B46020072
:1002500013CA13C313CA13C30023052B09D89A006A
:1002600069465158144A914201D00133F5E7DBB297
:1002700000E000231148026A9C1C0121A1400A43AE
:10028000026214333F221A408023DB0113430C4ADD
:100290005380C42292030B4907480B4B984706B082
:1002A00010BDC0460044004100000353400003D38A
:1002B000800003D3FC090000001C00420004004041
:1002C000000C004004C50000DD010000C369002BE4
:1002D000FCD189B20185037E9B07FCD57047C369B9
:1002E000002BFCD1438B9B0603D0438B0722934307
:1002F0004383008DC0B27047024B1B7E9B080120D8
:1003000018407047001C004210B582B00F4B1868AF
:10031000431C18D00E4B802212025A6006244F2133
:100320005C549A61196A114001911B6A1A4001924A
:10033000019B002B07D080239B011A6882F3088859
:10034000044A9360004702B010BDC046042000007C
:100350000044004100ED00E010B50B4B98470B49FD
:100360004A681E239A431C3B13434B60084A116A98
:10037000084B0B401362BFF35F8F62B6064B984782
:10038000064B9847FCE7C0460903000000400041C7
:1003900000080040FFFCFFFFB903000075060000E5
:1003A00010B5034B1B68DB6802210248984710BD5B
:1003B000200000204C0A000010B5014B984710BDEA
:1003C0003502000070B584B01E4B1B78002B33D073
:1003D00004290AD002290AD004784D006A1E062397
:1003E0006B449C466244002008E00468F5E70488FA
:1003F000F3E7373313702409013A0130A84207D2DA
:100400000F232340092BF4D8302633431370F2E72F
:1004100001A830230370483343704B1C5B000A2251
:10042000C25403350D234355074B1B68DB6802316B
:100430004900984704B070BD034B1B68DB689847C0
:10044000F8E7C0461C0000202000002072B6BFF371
:100450005F8FEFF30883064A1360036883F308880D
:10046000FF2302009A43034B9A6043681847704782
:100470002400002000ED00E0F0B5C64600B592B0C3
:1004800000267A239846734B1B681B69402101A8FC
:1004900098470700002501AC54E06F4B1B78002BF8
:1004A0002CD14346532B2CD04346522B63D043468A
:1004B0004F2B67D04346482B6AD04346572B6DD00D
:1004C00043466F2B6DD04346682B6FD04346772B46
:1004D00073D04346472B77D04346542B00D17EE060
:1004E00043464E2B00D180E04346562B20D1594B3A
:1004F0001B68DB681B215948984719E0584B9847FF
:10050000CFE701340135119A781B904200D91000D1
:10051000002105E0227832700136013401350131C5
:100520008142F7D3013D013C119B99421CD3C04647
:1005300000231193484B1B78002B61D17A239846F6
:1005400001340135BD429ED22378FF2BF9D0232BF5
:10055000A3D01A00303AD2B2092A5AD8119A1201FD
:10056000303B13431193EBE73A4A12689269591AE8
:1005700030009047DBE7374B1B685B69119930000F
:100580009847D5E76B4644229B181B783370CFE71A
:100590006B4644229B181B883380C9E7119B33604C
:1005A000C6E7012130002F4B9847C1E733881193EC
:1005B000022111A82B4B9847BAE733681193042105
:1005C00011A8284B9847B3E71198274B9847274B1A
:1005D0001B6883F30888BFF35F8F62B6A8E7012228
:1005E0001D4B1A701E4B9847A2E71B4B1B78002B24
:1005F00003D00022184B1A709AE7194B9847F8E776
:10060000144B1B68DB680121194898477A239846E8
:1006100096E71A00413AD2B2052A05D8119A12017A
:10062000373B134311938BE71A00613AD2B2052A84
:1006300005D8119A1201573B1343119380E72C2BD5
:1006400003D09846002311937AE7119E002311935B
:1006500076E7C046200000201C000020140A00009D
:10066000A1030000C50300004D0400002400002089
:10067000500A000010B5074B9847002800D110BD64
:10068000054B98472328FAD1044B1C33044A1360C6
:10069000044B9847F9020000C1060000140A00004C
:1006A000200000207904000010B5C1B20248034BBD
:1006B0009847012010BDC046001C0042CD0200003A
:1006C00010B5044B98470028FBD00348034B9847CC
:1006D00010BDC046F9020000001C0042DF0200000D
:1006E00070B50E000500002404E02878034B9847FD
:1006F00001350134B442F8D3200070BDA9060000D2
:1007000010B50400024B98472070012010BDC04670
:10071000C106000000024840002305E040000749F0
:10072000484080B201339BB2072B05D802B2002AA1
:10073000F4DB400080B2F5E77047C04621100000AE
:10074000F0B583B007000E0000240023019306E0FB
:100750007B1C3D70802E15D01F000134A4B2B44222
:1007600016D20D4B9847C5B2019928000B4B9847FC
:1007700001900B4B1B88002BEAD10A4B1B78002BF6
:10078000EBD0E5E706490A88013A0A801F00E4E752
:10079000019803B0F0BDC046C10600001507000077
:1007A000280000202A000020F8B507000C000120D6
:1007B000154DA8472000A847E043C0B2A847002431
:1007C00000260DE03D78013B104A138001372800D8
:1007D0000D4B9847210028000D4B98470400013627
:1007E0007F2E08D8094B1B88002BEBD1094A1578BE
:1007F000002DECD0E6E7200AC0B2034DA847E0B2D6
:10080000A847054B9847F8BDA9060000280000201E
:10081000150700002A000020C1060000F0B583B0D3
:1008200006000D00022101A8124CA04780213000D3
:10083000A0470600104FB84780B2000284B2B84704
:1008400080B22418A4B2A64203D101AB1B78AB42FC
:1008500005D01820094B9847002003B0F0BD01AB2C
:100860005B78ED43EDB2AB42F3D10620034B9847E2
:100870000120F2E741070000C1060000A9060000C0
:1008800070B505000E1E09D101221C4B1A707306AB
:1008900002D080367F239E43002406E0184B198047
:1008A0000022164B1A70F2E70124002C10D1154BD0
:1008B0009847FF2318404328F6D071281BD01528ED
:1008C000F3D1F1E70134E4B2803E8035002E08D048
:1008D000210028000C4B9847FF2318400628F1D030
:1008E000F4E70420094B9847064B98470022034B36
:1008F0001A70012000E0002070BDC0462A000020D0
:1009000028000020C1060000A9070000A906000079
:1009100070B50500002904D101221F4B1A7064260E
:1009200011E01E4B198000221B4B1A70F7E7013CA7
:100930001B4B9847002801D1002CF8D1002C22D164
:10094000013E002E25D04320164B9847164CEFE76A
:1009500021002800154B9847020001280FD0002ADB
:1009600014D0134B98470022FF2318400128EFD0E2
:100970000428F4D106200B4B98470022EFE70134FE
:10098000E4B28035EBE701240122E8E7024B1A705C
:100990000126300070BDC0462A000020280000203B
:1009A000F9020000A906000000350C001D08000037
:1009B000C106000070B500260C4D0D4C641BA41040
:1009C000A64209D1002600F045F80A4D0A4C641BE6
:1009D000A410A64205D170BDB300EB58984701366C
:1009E000EEE7B300EB5898470136F2E7600A0000E3
:1009F000600A0000600A0000640A0000000800426B
:100A0000000C004200100042001400420018004296
:100A1000001C004276322E31384D61722031362072
:100A2000323032312030393A30393A34320A0D001E
:100A3000A9060000C1060000F9020000E10600005E
:100A40000107000081080000110900000A0D0000E4
:100A50003E000000F8B5C046F8BC08BC9E46704792
:100A6000DD000000F8B5C046F8BC08BC9E467047E3
:040A7000B5000000CD
:00000001FF
